{
  "contractName": "KittyGram",
  "abi": [
    {
      "constant": true,
      "inputs": [
        {
          "name": "",
          "type": "uint256"
        },
        {
          "name": "",
          "type": "uint256"
        }
      ],
      "name": "KittyMemories",
      "outputs": [
        {
          "name": "ownerAtTheTime",
          "type": "address"
        },
        {
          "name": "ipfsImage",
          "type": "string"
        },
        {
          "name": "ipfsText",
          "type": "string"
        }
      ],
      "payable": false,
      "stateMutability": "view",
      "type": "function"
    },
    {
      "constant": true,
      "inputs": [],
      "name": "owner",
      "outputs": [
        {
          "name": "",
          "type": "address"
        }
      ],
      "payable": false,
      "stateMutability": "view",
      "type": "function"
    },
    {
      "constant": true,
      "inputs": [
        {
          "name": "",
          "type": "uint256"
        }
      ],
      "name": "KittyMemoryCount",
      "outputs": [
        {
          "name": "",
          "type": "uint256"
        }
      ],
      "payable": false,
      "stateMutability": "view",
      "type": "function"
    },
    {
      "constant": true,
      "inputs": [
        {
          "name": "contractName",
          "type": "string"
        },
        {
          "name": "migrationId",
          "type": "string"
        }
      ],
      "name": "isMigrated",
      "outputs": [
        {
          "name": "",
          "type": "bool"
        }
      ],
      "payable": false,
      "stateMutability": "view",
      "type": "function"
    },
    {
      "constant": true,
      "inputs": [],
      "name": "totalMemories",
      "outputs": [
        {
          "name": "",
          "type": "uint256"
        }
      ],
      "payable": false,
      "stateMutability": "view",
      "type": "function"
    },
    {
      "anonymous": false,
      "inputs": [
        {
          "indexed": false,
          "name": "contractName",
          "type": "string"
        },
        {
          "indexed": false,
          "name": "migrationId",
          "type": "string"
        }
      ],
      "name": "Migrated",
      "type": "event"
    },
    {
      "constant": false,
      "inputs": [
        {
          "name": "_owner",
          "type": "address"
        }
      ],
      "name": "initialize",
      "outputs": [],
      "payable": false,
      "stateMutability": "nonpayable",
      "type": "function"
    },
    {
      "constant": false,
      "inputs": [
        {
          "name": "_kittyID",
          "type": "uint256"
        },
        {
          "name": "_ipfsImage",
          "type": "string"
        },
        {
          "name": "_ipfsText",
          "type": "string"
        }
      ],
      "name": "pushMemory",
      "outputs": [],
      "payable": false,
      "stateMutability": "nonpayable",
      "type": "function"
    },
    {
      "constant": true,
      "inputs": [
        {
          "name": "_text",
          "type": "string"
        }
      ],
      "name": "isEmptyString",
      "outputs": [
        {
          "name": "",
          "type": "bool"
        }
      ],
      "payable": false,
      "stateMutability": "pure",
      "type": "function"
    }
  ],
  "bytecode": "0x6060604052341561000f57600080fd5b610d0b8061001e6000396000f30060606040526004361061008e576000357c0100000000000000000000000000000000000000000000000000000000900463ffffffff168063079af227146100935780638da5cb5b146101d757806398fe67461461022c578063a45f379e14610263578063c0bac1a8146102d8578063c4d66de814610390578063eacbb560146103c9578063eeba79f214610472575b600080fd5b341561009e57600080fd5b6100bd600480803590602001909190803590602001909190505061049b565b604051808473ffffffffffffffffffffffffffffffffffffffff1673ffffffffffffffffffffffffffffffffffffffff1681526020018060200180602001838103835285818151815260200191508051906020019080838360005b83811015610133578082015181840152602081019050610118565b50505050905090810190601f1680156101605780820380516001836020036101000a031916815260200191505b50838103825284818151815260200191508051906020019080838360005b8381101561019957808201518184015260208101905061017e565b50505050905090810190601f1680156101c65780820380516001836020036101000a031916815260200191505b509550505050505060405180910390f35b34156101e257600080fd5b6101ea610622565b604051808273ffffffffffffffffffffffffffffffffffffffff1673ffffffffffffffffffffffffffffffffffffffff16815260200191505060405180910390f35b341561023757600080fd5b61024d6004808035906020019091905050610648565b6040518082815260200191505060405180910390f35b341561026e57600080fd5b6102be600480803590602001908201803590602001908080601f01602080910402602001604051908101604052809392919081815260200183838082843782019150505050505091905050610660565b604051808215151515815260200191505060405180910390f35b34156102e357600080fd5b610376600480803590602001908201803590602001908080601f0160208091040260200160405190810160405280939291908181526020018383808284378201915050505050509190803590602001908201803590602001908080601f0160208091040260200160405190810160405280939291908181526020018383808284378201915050505050509190505061068b565b604051808215151515815260200191505060405180910390f35b341561039b57600080fd5b6103c7600480803573ffffffffffffffffffffffffffffffffffffffff16906020019091905050610776565b005b34156103d457600080fd5b610470600480803590602001909190803590602001908201803590602001908080601f0160208091040260200160405190810160405280939291908181526020018383808284378201915050505050509190803590602001908201803590602001908080601f01602080910402602001604051908101604052809392919081815260200183838082843782019150505050505091905050610a3c565b005b341561047d57600080fd5b610485610bc8565b6040518082815260200191505060405180910390f35b6001602052816000526040600020602052806000526040600020600091509150508060000160009054906101000a900473ffffffffffffffffffffffffffffffffffffffff1690806001018054600181600116156101000203166002900480601f01602080910402602001604051908101604052809291908181526020018280546001816001161561010002031660029004801561057a5780601f1061054f5761010080835404028352916020019161057a565b820191906000526020600020905b81548152906001019060200180831161055d57829003601f168201915b505050505090806002018054600181600116156101000203166002900480601f0160208091040260200160405190810160405280929190818152602001828054600181600116156101000203166002900480156106185780601f106105ed57610100808354040283529160200191610618565b820191906000526020600020905b8154815290600101906020018083116105fb57829003601f168201915b5050505050905083565b600460009054906101000a900473ffffffffffffffffffffffffffffffffffffffff1681565b60026020528060005260406000206000915090505481565b600061066a610bce565b8290506000815114156106805760019150610685565b600091505b50919050565b600080836040518082805190602001908083835b6020831015156106c4578051825260208201915060208101905060208303925061069f565b6001836020036101000a0380198251168184511680821785525050505050509050019150509081526020016040518091039020826040518082805190602001908083835b60208310151561072d5780518252602082019150602081019050602083039250610708565b6001836020036101000a038019825116818451168082178552505050505050905001915050908152602001604051809103902060009054906101000a900460ff16905092915050565b6040805190810160405280600981526020017f4b697474794772616d00000000000000000000000000000000000000000000008152506040805190810160405280600181526020017f30000000000000000000000000000000000000000000000000000000000000008152506107ec828261068b565b1515156107f857600080fd5b600060038190555082600460006101000a81548173ffffffffffffffffffffffffffffffffffffffff021916908373ffffffffffffffffffffffffffffffffffffffff1602179055507fdd117a11c22118c9dee4b5a67ce578bc44529dce21ee0ccc439588fbb9fb4ea38282604051808060200180602001838103835285818151815260200191508051906020019080838360005b838110156108a857808201518184015260208101905061088d565b50505050905090810190601f1680156108d55780820380516001836020036101000a031916815260200191505b50838103825284818151815260200191508051906020019080838360005b8381101561090e5780820151818401526020810190506108f3565b50505050905090810190601f16801561093b5780820380516001836020036101000a031916815260200191505b5094505050505060405180910390a160016000836040518082805190602001908083835b602083101515610984578051825260208201915060208101905060208303925061095f565b6001836020036101000a0380198251168184511680821785525050505050509050019150509081526020016040518091039020826040518082805190602001908083835b6020831015156109ed57805182526020820191506020810190506020830392506109c8565b6001836020036101000a038019825116818451168082178552505050505050905001915050908152602001604051809103902060006101000a81548160ff021916908315150217905550505050565b6000610a46610be2565b60008514151515610a5657600080fd5b610a5f84610660565b151515610a6b57600080fd5b610a7483610660565b151515610a8057600080fd5b6001600260008781526020019081526020016000205401915033816000019073ffffffffffffffffffffffffffffffffffffffff16908173ffffffffffffffffffffffffffffffffffffffff16815250508381602001819052508281604001819052508060016000878152602001908152602001600020600084815260200190815260200160002060008201518160000160006101000a81548173ffffffffffffffffffffffffffffffffffffffff021916908373ffffffffffffffffffffffffffffffffffffffff1602179055506020820151816001019080519060200190610b6b929190610c26565b506040820151816002019080519060200190610b88929190610c26565b5090505060026000868152602001908152602001600020600081548092919060010191905055506003600081548092919060010191905055505050505050565b60035481565b602060405190810160405280600081525090565b606060405190810160405280600073ffffffffffffffffffffffffffffffffffffffff168152602001610c13610ca6565b8152602001610c20610ca6565b81525090565b828054600181600116156101000203166002900490600052602060002090601f016020900481019282601f10610c6757805160ff1916838001178555610c95565b82800160010185558215610c95579182015b82811115610c94578251825591602001919060010190610c79565b5b509050610ca29190610cba565b5090565b602060405190810160405280600081525090565b610cdc91905b80821115610cd8576000816000905550600101610cc0565b5090565b905600a165627a7a723058203d6a5582bb5ccba7eef5cee666497e160479adf28bfabcae5aca5596305b61840029",
  "source": "pragma solidity ^0.4.21;\nimport \"zos-lib/contracts/migrations/Migratable.sol\";\n\n\ncontract KittyGram is Migratable {\n\n    //Kitty Memory Format\n    struct kittymemory {\n        address ownerAtTheTime;\n        string ipfsImage;\n        string ipfsText;\n    }\n\n    //Map Kitty ID to a mapping of Integers to KittyMemory Struct and mapping\n    //of how many memories each kitty has\n    mapping(uint =>mapping(uint => kittymemory)) public KittyMemories;\n    mapping(uint => uint) public KittyMemoryCount;\n\n    //Total Number of Memories Recorded\n    uint public totalMemories;\n    address public owner;\n    //address public ownerOf;\n\n\n    //Address of CryptoKitties on Rinkby\n    //address CryptoKittiesContract = 0x7e5f938e0136F4e5deaA8D6Ea5760aeB9604cb1d;\n    //bool public testKittyOwner;\n\n\n    function initialize (address _owner) isInitializer(\"KittyGram\", \"0\") public {\n        //Should check that Zeppelin updates don't write this to zero again\n        totalMemories = 0;\n        owner = _owner;\n    }\n\n    function pushMemory(uint _kittyID, string _ipfsImage, string _ipfsText) public {\n    require(_kittyID != 0);\n    require(!isEmptyString(_ipfsImage));\n    require(!isEmptyString(_ipfsText));\n\n\n    //testKittyOwner = CryptoKittiesContract.delegatecall(bytes4(sha3(\"ownerOf(uint256)\")), _kittyID);\n    //FakeCryptoKitty fakeCryptoKitty = FakeCryptoKitty(CryptoKittiesContract);\n    //ownerOf = fakeCryptoKitty.ownerOf(_kittyID);\n\n\n    uint currentMemorySlot = KittyMemoryCount[_kittyID] + 1;\n\n    kittymemory memory kittyMemory;\n    kittyMemory.ownerAtTheTime = msg.sender;\n    kittyMemory.ipfsImage = _ipfsImage;\n    kittyMemory.ipfsText = _ipfsText;\n\n    KittyMemories[_kittyID][currentMemorySlot] = kittyMemory;\n    KittyMemoryCount[_kittyID] ++;\n\n    totalMemories ++;\n    }\n\n    function isEmptyString(string _text) public pure returns (bool){\n        bytes memory tempEmptyStringTest = bytes(_text); // Uses memory\n        if (tempEmptyStringTest.length == 0) {\n            return true;\n        } else {\n            return false;\n        }\n    }\n\n}\n",
  "sourcePath": "/Users/blake/Documents/Development/ethereum/eth-ba-cryptokitties-instagram/contracts/KittyGram.sol",
  "compiler": {
    "name": "solc",
    "version": "0.4.21+commit.dfe3193c.Emscripten.clang"
  },
  "schemaVersion": "2.0.0",
  "updatedAt": "2018-05-26T21:58:37.445Z"
}