{
  "contractName": "ZombieOwnership",
  "abi": [
    {
      "constant": true,
      "inputs": [],
      "name": "howManyZombies",
      "outputs": [
        {
          "name": "",
          "type": "uint256"
        }
      ],
      "payable": false,
      "stateMutability": "view",
      "type": "function"
    },
    {
      "constant": false,
      "inputs": [
        {
          "name": "_zombieId",
          "type": "uint256"
        }
      ],
      "name": "levelUp",
      "outputs": [],
      "payable": true,
      "stateMutability": "payable",
      "type": "function"
    },
    {
      "constant": false,
      "inputs": [
        {
          "name": "_zombieId",
          "type": "uint256"
        },
        {
          "name": "_kittyId",
          "type": "uint256"
        }
      ],
      "name": "feedOnKitty",
      "outputs": [],
      "payable": false,
      "stateMutability": "nonpayable",
      "type": "function"
    },
    {
      "constant": true,
      "inputs": [
        {
          "name": "",
          "type": "uint256"
        }
      ],
      "name": "zombies",
      "outputs": [
        {
          "name": "name",
          "type": "string"
        },
        {
          "name": "dna",
          "type": "uint256"
        },
        {
          "name": "level",
          "type": "uint32"
        },
        {
          "name": "readyTime",
          "type": "uint32"
        },
        {
          "name": "winCount",
          "type": "uint16"
        },
        {
          "name": "lossCount",
          "type": "uint16"
        }
      ],
      "payable": false,
      "stateMutability": "view",
      "type": "function"
    },
    {
      "constant": true,
      "inputs": [
        {
          "name": "",
          "type": "uint256"
        }
      ],
      "name": "blakes",
      "outputs": [
        {
          "name": "name",
          "type": "string"
        }
      ],
      "payable": false,
      "stateMutability": "view",
      "type": "function"
    },
    {
      "constant": false,
      "inputs": [],
      "name": "withdraw",
      "outputs": [],
      "payable": false,
      "stateMutability": "nonpayable",
      "type": "function"
    },
    {
      "constant": true,
      "inputs": [
        {
          "name": "_owner",
          "type": "address"
        }
      ],
      "name": "getZombiesByOwner",
      "outputs": [
        {
          "name": "",
          "type": "uint256[]"
        }
      ],
      "payable": false,
      "stateMutability": "view",
      "type": "function"
    },
    {
      "constant": true,
      "inputs": [
        {
          "name": "",
          "type": "uint256"
        }
      ],
      "name": "samplezombies",
      "outputs": [
        {
          "name": "name",
          "type": "string"
        },
        {
          "name": "dna",
          "type": "uint256"
        },
        {
          "name": "level",
          "type": "uint32"
        },
        {
          "name": "readyTime",
          "type": "uint32"
        },
        {
          "name": "winCount",
          "type": "uint16"
        },
        {
          "name": "lossCount",
          "type": "uint16"
        }
      ],
      "payable": false,
      "stateMutability": "view",
      "type": "function"
    },
    {
      "constant": true,
      "inputs": [
        {
          "name": "",
          "type": "uint256"
        }
      ],
      "name": "zombieToOwner",
      "outputs": [
        {
          "name": "",
          "type": "address"
        }
      ],
      "payable": false,
      "stateMutability": "view",
      "type": "function"
    },
    {
      "constant": false,
      "inputs": [
        {
          "name": "_address",
          "type": "address"
        }
      ],
      "name": "setKittyContractAddress",
      "outputs": [],
      "payable": false,
      "stateMutability": "nonpayable",
      "type": "function"
    },
    {
      "constant": false,
      "inputs": [
        {
          "name": "_zombieId",
          "type": "uint256"
        },
        {
          "name": "_newDna",
          "type": "uint256"
        }
      ],
      "name": "changeDna",
      "outputs": [],
      "payable": false,
      "stateMutability": "nonpayable",
      "type": "function"
    },
    {
      "constant": false,
      "inputs": [
        {
          "name": "_name",
          "type": "string"
        }
      ],
      "name": "createRandomZombie",
      "outputs": [],
      "payable": false,
      "stateMutability": "nonpayable",
      "type": "function"
    },
    {
      "constant": true,
      "inputs": [],
      "name": "owner",
      "outputs": [
        {
          "name": "",
          "type": "address"
        }
      ],
      "payable": false,
      "stateMutability": "view",
      "type": "function"
    },
    {
      "constant": false,
      "inputs": [
        {
          "name": "_name",
          "type": "string"
        }
      ],
      "name": "createBlake",
      "outputs": [],
      "payable": false,
      "stateMutability": "nonpayable",
      "type": "function"
    },
    {
      "constant": false,
      "inputs": [
        {
          "name": "_zombieId",
          "type": "uint256"
        },
        {
          "name": "_newName",
          "type": "string"
        }
      ],
      "name": "changeName",
      "outputs": [],
      "payable": false,
      "stateMutability": "nonpayable",
      "type": "function"
    },
    {
      "constant": false,
      "inputs": [
        {
          "name": "_fee",
          "type": "uint256"
        }
      ],
      "name": "setLevelUpFee",
      "outputs": [],
      "payable": false,
      "stateMutability": "nonpayable",
      "type": "function"
    },
    {
      "constant": true,
      "inputs": [],
      "name": "howManySampleZombies",
      "outputs": [
        {
          "name": "",
          "type": "uint256"
        }
      ],
      "payable": false,
      "stateMutability": "view",
      "type": "function"
    },
    {
      "constant": true,
      "inputs": [],
      "name": "howManyBlakes",
      "outputs": [
        {
          "name": "",
          "type": "uint256"
        }
      ],
      "payable": false,
      "stateMutability": "view",
      "type": "function"
    },
    {
      "constant": false,
      "inputs": [
        {
          "name": "_zombieId",
          "type": "uint256"
        },
        {
          "name": "_targetId",
          "type": "uint256"
        }
      ],
      "name": "attack",
      "outputs": [],
      "payable": false,
      "stateMutability": "nonpayable",
      "type": "function"
    },
    {
      "constant": false,
      "inputs": [
        {
          "name": "newOwner",
          "type": "address"
        }
      ],
      "name": "transferOwnership",
      "outputs": [],
      "payable": false,
      "stateMutability": "nonpayable",
      "type": "function"
    },
    {
      "anonymous": false,
      "inputs": [
        {
          "indexed": true,
          "name": "_from",
          "type": "address"
        },
        {
          "indexed": true,
          "name": "_to",
          "type": "address"
        },
        {
          "indexed": false,
          "name": "_tokenId",
          "type": "uint256"
        }
      ],
      "name": "Transfer",
      "type": "event"
    },
    {
      "anonymous": false,
      "inputs": [
        {
          "indexed": true,
          "name": "_owner",
          "type": "address"
        },
        {
          "indexed": true,
          "name": "_approved",
          "type": "address"
        },
        {
          "indexed": false,
          "name": "_tokenId",
          "type": "uint256"
        }
      ],
      "name": "Approval",
      "type": "event"
    },
    {
      "anonymous": false,
      "inputs": [
        {
          "indexed": false,
          "name": "zombieId",
          "type": "uint256"
        },
        {
          "indexed": false,
          "name": "name",
          "type": "string"
        },
        {
          "indexed": false,
          "name": "dna",
          "type": "uint256"
        }
      ],
      "name": "NewZombie",
      "type": "event"
    },
    {
      "anonymous": false,
      "inputs": [
        {
          "indexed": false,
          "name": "zombieId",
          "type": "uint256"
        },
        {
          "indexed": false,
          "name": "name",
          "type": "string"
        },
        {
          "indexed": false,
          "name": "dna",
          "type": "uint256"
        }
      ],
      "name": "NewSampleZombie",
      "type": "event"
    },
    {
      "anonymous": false,
      "inputs": [
        {
          "indexed": true,
          "name": "previousOwner",
          "type": "address"
        },
        {
          "indexed": true,
          "name": "newOwner",
          "type": "address"
        }
      ],
      "name": "OwnershipTransferred",
      "type": "event"
    },
    {
      "constant": true,
      "inputs": [
        {
          "name": "_owner",
          "type": "address"
        }
      ],
      "name": "balanceOf",
      "outputs": [
        {
          "name": "_balance",
          "type": "uint256"
        }
      ],
      "payable": false,
      "stateMutability": "view",
      "type": "function"
    },
    {
      "constant": true,
      "inputs": [
        {
          "name": "_tokenId",
          "type": "uint256"
        }
      ],
      "name": "ownerOf",
      "outputs": [
        {
          "name": "_owner",
          "type": "address"
        }
      ],
      "payable": false,
      "stateMutability": "view",
      "type": "function"
    },
    {
      "constant": false,
      "inputs": [
        {
          "name": "_to",
          "type": "address"
        },
        {
          "name": "_tokenId",
          "type": "uint256"
        }
      ],
      "name": "transfer",
      "outputs": [],
      "payable": false,
      "stateMutability": "nonpayable",
      "type": "function"
    },
    {
      "constant": false,
      "inputs": [
        {
          "name": "_to",
          "type": "address"
        },
        {
          "name": "_tokenId",
          "type": "uint256"
        }
      ],
      "name": "approve",
      "outputs": [],
      "payable": false,
      "stateMutability": "nonpayable",
      "type": "function"
    },
    {
      "constant": false,
      "inputs": [
        {
          "name": "_tokenId",
          "type": "uint256"
        }
      ],
      "name": "takeOwnership",
      "outputs": [],
      "payable": false,
      "stateMutability": "nonpayable",
      "type": "function"
    }
  ],
  "bytecode": "0x60606040526010600155600154600a0a6002556201518060035566038d7ea4c68000600a556000600b556046600c55336000806101000a81548173ffffffffffffffffffffffffffffffffffffffff021916908373ffffffffffffffffffffffffffffffffffffffff16021790555061273c8061007d6000396000f300606060405260043610610148576000357c0100000000000000000000000000000000000000000000000000000000900463ffffffff16806236ce3e1461014d578063095ea7b3146101765780630ce90ec2146101b857806317a7f4cc146101d05780632052465e146101fc5780633790f5f7146102e35780633ccfd60b1461037f5780634412e104146103945780634e45f32c14610422578063528b7b8f146105095780635f4623f11461056c5780635faf2880146105a55780636352211e146105d157806370a08231146106345780637bff0a01146106815780638da5cb5b146106de578063a9059cbb14610733578063b2e6ceeb14610775578063ba4bb20614610798578063c39cbef1146107f5578063ccf670f81461082c578063d3a81f241461084f578063d8fd86a414610878578063e1fa7638146108a1578063f2fde38b146108cd575b600080fd5b341561015857600080fd5b610160610906565b6040518082815260200191505060405180910390f35b341561018157600080fd5b6101b6600480803573ffffffffffffffffffffffffffffffffffffffff16906020019091908035906020019091905050610913565b005b6101ce6004808035906020019091905050610a3d565b005b34156101db57600080fd5b6101fa6004808035906020019091908035906020019091905050610aa9565b005b341561020757600080fd5b61021d6004808035906020019091905050610c08565b60405180806020018781526020018663ffffffff1663ffffffff1681526020018563ffffffff1663ffffffff1681526020018461ffff1661ffff1681526020018361ffff1661ffff168152602001828103825288818151815260200191508051906020019080838360005b838110156102a3578082015181840152602081019050610288565b50505050905090810190601f1680156102d05780820380516001836020036101000a031916815260200191505b5097505050505050505060405180910390f35b34156102ee57600080fd5b6103046004808035906020019091905050610d27565b6040518080602001828103825283818151815260200191508051906020019080838360005b83811015610344578082015181840152602081019050610329565b50505050905090810190601f1680156103715780820380516001836020036101000a031916815260200191505b509250505060405180910390f35b341561038a57600080fd5b610392610de9565b005b341561039f57600080fd5b6103cb600480803573ffffffffffffffffffffffffffffffffffffffff16906020019091905050610ebe565b6040518080602001828103825283818151815260200191508051906020019060200280838360005b8381101561040e5780820151818401526020810190506103f3565b505050509050019250505060405180910390f35b341561042d57600080fd5b6104436004808035906020019091905050610fec565b60405180806020018781526020018663ffffffff1663ffffffff1681526020018563ffffffff1663ffffffff1681526020018461ffff1661ffff1681526020018361ffff1661ffff168152602001828103825288818151815260200191508051906020019080838360005b838110156104c95780820151818401526020810190506104ae565b50505050905090810190601f1680156104f65780820380516001836020036101000a031916815260200191505b5097505050505050505060405180910390f35b341561051457600080fd5b61052a600480803590602001909190505061110b565b604051808273ffffffffffffffffffffffffffffffffffffffff1673ffffffffffffffffffffffffffffffffffffffff16815260200191505060405180910390f35b341561057757600080fd5b6105a3600480803573ffffffffffffffffffffffffffffffffffffffff1690602001909190505061113e565b005b34156105b057600080fd5b6105cf60048080359060200190919080359060200190919050506111dd565b005b34156105dc57600080fd5b6105f260048080359060200190919050506112bf565b604051808273ffffffffffffffffffffffffffffffffffffffff1673ffffffffffffffffffffffffffffffffffffffff16815260200191505060405180910390f35b341561063f57600080fd5b61066b600480803573ffffffffffffffffffffffffffffffffffffffff169060200190919050506112fc565b6040518082815260200191505060405180910390f35b341561068c57600080fd5b6106dc600480803590602001908201803590602001908080601f01602080910402602001604051908101604052809392919081815260200183838082843782019150505050505091905050611345565b005b34156106e957600080fd5b6106f1611371565b604051808273ffffffffffffffffffffffffffffffffffffffff1673ffffffffffffffffffffffffffffffffffffffff16815260200191505060405180910390f35b341561073e57600080fd5b610773600480803573ffffffffffffffffffffffffffffffffffffffff16906020019091908035906020019091905050611396565b005b341561078057600080fd5b6107966004808035906020019091905050611414565b005b34156107a357600080fd5b6107f3600480803590602001908201803590602001908080601f0160208091040260200160405190810160405280939291908181526020018383808284378201915050505050509190505061149d565b005b341561080057600080fd5b61082a600480803590602001909190803590602001908201803590602001919091929050506114f6565b005b341561083757600080fd5b61084d60048080359060200190919050506115e4565b005b341561085a57600080fd5b610862611649565b6040518082815260200191505060405180910390f35b341561088357600080fd5b61088b611656565b6040518082815260200191505060405180910390f35b34156108ac57600080fd5b6108cb6004808035906020019091908035906020019091905050611663565b005b34156108d857600080fd5b610904600480803573ffffffffffffffffffffffffffffffffffffffff1690602001909190505061189f565b005b6000600480549050905090565b806007600082815260200190815260200160002060009054906101000a900473ffffffffffffffffffffffffffffffffffffffff1673ffffffffffffffffffffffffffffffffffffffff163373ffffffffffffffffffffffffffffffffffffffff1614151561098157600080fd5b82600d600084815260200190815260200160002060006101000a81548173ffffffffffffffffffffffffffffffffffffffff021916908373ffffffffffffffffffffffffffffffffffffffff1602179055508273ffffffffffffffffffffffffffffffffffffffff163373ffffffffffffffffffffffffffffffffffffffff167f8c5be1e5ebec7d5bd14f71427d1e84f3dd0314c0f7b2291e5b200ac8c7c3b925846040518082815260200191505060405180910390a3505050565b600a5434141515610a4d57600080fd5b600481815481101515610a5c57fe5b9060005260206000209060030201600201600081819054906101000a900463ffffffff168092919060010191906101000a81548163ffffffff021916908363ffffffff1602179055505050565b6000600960009054906101000a900473ffffffffffffffffffffffffffffffffffffffff1673ffffffffffffffffffffffffffffffffffffffff1663e98b7f4d836040518263ffffffff167c01000000000000000000000000000000000000000000000000000000000281526004018082815260200191505061014060405180830381600087803b1515610b3c57600080fd5b5af11515610b4957600080fd5b5050506040518051906020018051906020018051906020018051906020018051906020018051906020018051906020018051906020018051906020018051905090919293949596979850909192939495969750909192939495965090919293949550909192939450909192935090919250909150905080915050610c0383826040805190810160405280600581526020017f6b697474790000000000000000000000000000000000000000000000000000008152506119f4565b505050565b600481815481101515610c1757fe5b9060005260206000209060030201600091509050806000018054600181600116156101000203166002900480601f016020809104026020016040519081016040528092919081815260200182805460018160011615610100020316600290048015610cc35780601f10610c9857610100808354040283529160200191610cc3565b820191906000526020600020905b815481529060010190602001808311610ca657829003601f168201915b5050505050908060010154908060020160009054906101000a900463ffffffff16908060020160049054906101000a900463ffffffff16908060020160089054906101000a900461ffff169080600201600a9054906101000a900461ffff16905086565b600581815481101515610d3657fe5b9060005260206000209001600091509050806000018054600181600116156101000203166002900480601f016020809104026020016040519081016040528092919081815260200182805460018160011615610100020316600290048015610ddf5780601f10610db457610100808354040283529160200191610ddf565b820191906000526020600020905b815481529060010190602001808311610dc257829003601f168201915b5050505050905081565b6000809054906101000a900473ffffffffffffffffffffffffffffffffffffffff1673ffffffffffffffffffffffffffffffffffffffff163373ffffffffffffffffffffffffffffffffffffffff16141515610e4457600080fd5b6000809054906101000a900473ffffffffffffffffffffffffffffffffffffffff1673ffffffffffffffffffffffffffffffffffffffff166108fc3073ffffffffffffffffffffffffffffffffffffffff16319081150290604051600060405180830381858888f193505050501515610ebc57600080fd5b565b610ec66123b2565b610ece6123b2565b600080600860008673ffffffffffffffffffffffffffffffffffffffff1673ffffffffffffffffffffffffffffffffffffffff16815260200190815260200160002054604051805910610f1e5750595b9080825280602002602001820160405250925060009150600090505b600480549050811015610fe1578473ffffffffffffffffffffffffffffffffffffffff166007600083815260200190815260200160002060009054906101000a900473ffffffffffffffffffffffffffffffffffffffff1673ffffffffffffffffffffffffffffffffffffffff161415610fd457808383815181101515610fbd57fe5b906020019060200201818152505081806001019250505b8080600101915050610f3a565b829350505050919050565b600681815481101515610ffb57fe5b9060005260206000209060030201600091509050806000018054600181600116156101000203166002900480601f0160208091040260200160405190810160405280929190818152602001828054600181600116156101000203166002900480156110a75780601f1061107c576101008083540402835291602001916110a7565b820191906000526020600020905b81548152906001019060200180831161108a57829003601f168201915b5050505050908060010154908060020160009054906101000a900463ffffffff16908060020160049054906101000a900463ffffffff16908060020160089054906101000a900461ffff169080600201600a9054906101000a900461ffff16905086565b60076020528060005260406000206000915054906101000a900473ffffffffffffffffffffffffffffffffffffffff1681565b6000809054906101000a900473ffffffffffffffffffffffffffffffffffffffff1673ffffffffffffffffffffffffffffffffffffffff163373ffffffffffffffffffffffffffffffffffffffff1614151561119957600080fd5b80600960006101000a81548173ffffffffffffffffffffffffffffffffffffffff021916908373ffffffffffffffffffffffffffffffffffffffff16021790555050565b601482816004828154811015156111f057fe5b906000526020600020906003020160020160009054906101000a900463ffffffff1663ffffffff161015151561122557600080fd5b836007600082815260200190815260200160002060009054906101000a900473ffffffffffffffffffffffffffffffffffffffff1673ffffffffffffffffffffffffffffffffffffffff163373ffffffffffffffffffffffffffffffffffffffff1614151561129357600080fd5b836004868154811015156112a357fe5b9060005260206000209060030201600101819055505050505050565b60006007600083815260200190815260200160002060009054906101000a900473ffffffffffffffffffffffffffffffffffffffff169050919050565b6000600860008373ffffffffffffffffffffffffffffffffffffffff1673ffffffffffffffffffffffffffffffffffffffff168152602001908152602001600020549050919050565b600061135082611bc9565b905060648181151561135e57fe5b068103905061136d8282611c4b565b5050565b6000809054906101000a900473ffffffffffffffffffffffffffffffffffffffff1681565b806007600082815260200190815260200160002060009054906101000a900473ffffffffffffffffffffffffffffffffffffffff1673ffffffffffffffffffffffffffffffffffffffff163373ffffffffffffffffffffffffffffffffffffffff1614151561140457600080fd5b61140f3384846120b5565b505050565b60003373ffffffffffffffffffffffffffffffffffffffff16600d600084815260200190815260200160002060009054906101000a900473ffffffffffffffffffffffffffffffffffffffff1673ffffffffffffffffffffffffffffffffffffffff1614151561148357600080fd5b61148c826112bf565b90506114998133846120b5565b5050565b600580548060010182816114b191906123c6565b9160005260206000209001600060206040519081016040528085815250909190915060008201518160000190805190602001906114ef9291906123f2565b5050505050565b6002838160048281548110151561150957fe5b906000526020600020906003020160020160009054906101000a900463ffffffff1663ffffffff161015151561153e57600080fd5b846007600082815260200190815260200160002060009054906101000a900473ffffffffffffffffffffffffffffffffffffffff1673ffffffffffffffffffffffffffffffffffffffff163373ffffffffffffffffffffffffffffffffffffffff161415156115ac57600080fd5b84846004888154811015156115bd57fe5b906000526020600020906003020160000191906115db929190612472565b50505050505050565b6000809054906101000a900473ffffffffffffffffffffffffffffffffffffffff1673ffffffffffffffffffffffffffffffffffffffff163373ffffffffffffffffffffffffffffffffffffffff1614151561163f57600080fd5b80600a8190555050565b6000600680549050905090565b6000600580549050905090565b6000806000846007600082815260200190815260200160002060009054906101000a900473ffffffffffffffffffffffffffffffffffffffff1673ffffffffffffffffffffffffffffffffffffffff163373ffffffffffffffffffffffffffffffffffffffff161415156116d657600080fd5b6004868154811015156116e557fe5b9060005260206000209060030201935060048581548110151561170457fe5b9060005260206000209060030201925061171e606461229d565b9150600c548211151561181f5783600201600881819054906101000a900461ffff168092919060010191906101000a81548161ffff021916908361ffff1602179055505083600201600081819054906101000a900463ffffffff168092919060010191906101000a81548163ffffffff021916908363ffffffff1602179055505082600201600a81819054906101000a900461ffff168092919060010191906101000a81548161ffff021916908361ffff1602179055505061181a8684600101546040805190810160405280600681526020017f7a6f6d62696500000000000000000000000000000000000000000000000000008152506119f4565b611897565b83600201600a81819054906101000a900461ffff168092919060010191906101000a81548161ffff021916908361ffff1602179055505082600201600881819054906101000a900461ffff168092919060010191906101000a81548161ffff021916908361ffff160217905550506118968461232a565b5b505050505050565b6000809054906101000a900473ffffffffffffffffffffffffffffffffffffffff1673ffffffffffffffffffffffffffffffffffffffff163373ffffffffffffffffffffffffffffffffffffffff161415156118fa57600080fd5b600073ffffffffffffffffffffffffffffffffffffffff168173ffffffffffffffffffffffffffffffffffffffff161415151561193657600080fd5b8073ffffffffffffffffffffffffffffffffffffffff166000809054906101000a900473ffffffffffffffffffffffffffffffffffffffff1673ffffffffffffffffffffffffffffffffffffffff167f8be0079c531659141344cd1fd0a4f28419497f9722a3daafe3b4186f6b6457e060405160405180910390a3806000806101000a81548173ffffffffffffffffffffffffffffffffffffffff021916908373ffffffffffffffffffffffffffffffffffffffff16021790555050565b600080846007600082815260200190815260200160002060009054906101000a900473ffffffffffffffffffffffffffffffffffffffff1673ffffffffffffffffffffffffffffffffffffffff163373ffffffffffffffffffffffffffffffffffffffff16141515611a6557600080fd5b600486815481101515611a7457fe5b90600052602060002090600302019250611a8d83612354565b1515611a9857600080fd5b60025485811515611aa557fe5b069450600285846001015401811515611aba57fe5b04915060405180807f6b697474790000000000000000000000000000000000000000000000000000008152506005019050604051809103902060001916846040518082805190602001908083835b602083101515611b2d5780518252602082019150602081019050602083039250611b08565b6001836020036101000a0380198251168184511680821785525050505050509050019150506040518091039020600019161415611b79576063606483811515611b7257fe5b0683030191505b611bb86040805190810160405280600681526020017f4e6f4e616d65000000000000000000000000000000000000000000000000000081525083611c4b565b611bc18361232a565b505050505050565b600080826040518082805190602001908083835b602083101515611c025780518252602082019150602081019050602083039250611bdd565b6001836020036101000a038019825116818451168082178552505050505050905001915050604051809103902060019004905060025481811515611c4257fe5b06915050919050565b600080600160048054806001018281611c6491906124f2565b9160005260206000209060030201600060c060405190810160405280898152602001888152602001600163ffffffff168152602001600354420163ffffffff168152602001600061ffff168152602001600061ffff1681525090919091506000820151816000019080519060200190611cde9291906123f2565b506020820151816001015560408201518160020160006101000a81548163ffffffff021916908363ffffffff16021790555060608201518160020160046101000a81548163ffffffff021916908363ffffffff16021790555060808201518160020160086101000a81548161ffff021916908361ffff16021790555060a082015181600201600a6101000a81548161ffff021916908361ffff1602179055505050039150336007600084815260200190815260200160002060006101000a81548173ffffffffffffffffffffffffffffffffffffffff021916908373ffffffffffffffffffffffffffffffffffffffff160217905550600860003373ffffffffffffffffffffffffffffffffffffffff1673ffffffffffffffffffffffffffffffffffffffff16815260200190815260200160002060008154809291906001019190505550600160068054806001018281611e399190612524565b9160005260206000209060030201600060c060405190810160405280898152602001888152602001600163ffffffff168152602001600354420163ffffffff168152602001600061ffff168152602001600061ffff1681525090919091506000820151816000019080519060200190611eb39291906123f2565b506020820151816001015560408201518160020160006101000a81548163ffffffff021916908363ffffffff16021790555060608201518160020160046101000a81548163ffffffff021916908363ffffffff16021790555060808201518160020160086101000a81548161ffff021916908361ffff16021790555060a082015181600201600a6101000a81548161ffff021916908361ffff16021790555050500390507f45b406011626285c4c937ccbbfcedc6b4ea152beb72dad20e1a29945cb946ebd8285856040518084815260200180602001838152602001828103825284818151815260200191508051906020019080838360005b83811015611fc7578082015181840152602081019050611fac565b50505050905090810190601f168015611ff45780820380516001836020036101000a031916815260200191505b5094505050505060405180910390a17f88f026aacbbecc90c18411df4b1185fd8d9be2470f1962f192bf84a27d0704b78285856040518084815260200180602001838152602001828103825284818151815260200191508051906020019080838360005b83811015612073578082015181840152602081019050612058565b50505050905090810190601f1680156120a05780820380516001836020036101000a031916815260200191505b5094505050505060405180910390a150505050565b6121086001600860008573ffffffffffffffffffffffffffffffffffffffff1673ffffffffffffffffffffffffffffffffffffffff1681526020019081526020016000205461237b90919063ffffffff16565b600860008473ffffffffffffffffffffffffffffffffffffffff1673ffffffffffffffffffffffffffffffffffffffff1681526020019081526020016000208190555061219e6001600860003373ffffffffffffffffffffffffffffffffffffffff1673ffffffffffffffffffffffffffffffffffffffff1681526020019081526020016000205461239990919063ffffffff16565b600860003373ffffffffffffffffffffffffffffffffffffffff1673ffffffffffffffffffffffffffffffffffffffff16815260200190815260200160002081905550816007600083815260200190815260200160002060006101000a81548173ffffffffffffffffffffffffffffffffffffffff021916908373ffffffffffffffffffffffffffffffffffffffff1602179055508173ffffffffffffffffffffffffffffffffffffffff168373ffffffffffffffffffffffffffffffffffffffff167fddf252ad1be2c89b69c2b068fc378daa952ba7f163c4a11628f55a4df523b3ef836040518082815260200191505060405180910390a3505050565b6000600b60008154809291906001019190505550814233600b54604051808481526020018373ffffffffffffffffffffffffffffffffffffffff1673ffffffffffffffffffffffffffffffffffffffff166c01000000000000000000000000028152601401828152602001935050505060405180910390206001900481151561232257fe5b069050919050565b60035442018160020160046101000a81548163ffffffff021916908363ffffffff16021790555050565b6000428260020160049054906101000a900463ffffffff1663ffffffff1611159050919050565b600080828401905083811015151561238f57fe5b8091505092915050565b60008282111515156123a757fe5b818303905092915050565b602060405190810160405280600081525090565b8154818355818115116123ed578183600052602060002091820191016123ec9190612556565b5b505050565b828054600181600116156101000203166002900490600052602060002090601f016020900481019282601f1061243357805160ff1916838001178555612461565b82800160010185558215612461579182015b82811115612460578251825591602001919060010190612445565b5b50905061246e9190612585565b5090565b828054600181600116156101000203166002900490600052602060002090601f016020900481019282601f106124b357803560ff19168380011785556124e1565b828001600101855582156124e1579182015b828111156124e05782358255916020019190600101906124c5565b5b5090506124ee9190612585565b5090565b81548183558181151161251f5760030281600302836000526020600020918201910161251e91906125aa565b5b505050565b815481835581811511612551576003028160030283600052602060002091820191016125509190612639565b5b505050565b61258291905b8082111561257e576000808201600061257591906126c8565b5060010161255c565b5090565b90565b6125a791905b808211156125a357600081600090555060010161258b565b5090565b90565b61263691905b8082111561263257600080820160006125c991906126c8565b60018201600090556002820160006101000a81549063ffffffff02191690556002820160046101000a81549063ffffffff02191690556002820160086101000a81549061ffff021916905560028201600a6101000a81549061ffff0219169055506003016125b0565b5090565b90565b6126c591905b808211156126c1576000808201600061265891906126c8565b60018201600090556002820160006101000a81549063ffffffff02191690556002820160046101000a81549063ffffffff02191690556002820160086101000a81549061ffff021916905560028201600a6101000a81549061ffff02191690555060030161263f565b5090565b90565b50805460018160011615610100020316600290046000825580601f106126ee575061270d565b601f01602090049060005260206000209081019061270c9190612585565b5b505600a165627a7a7230582008a3a6aafa06345d7b10a38936b344260c8364f717f4271eedd7e78855f5cdbd0029",
  "source": "pragma solidity ^0.4.19;\n\nimport \"./zombieattack.sol\";\nimport \"./erc721.sol\";\nimport \"./safemath.sol\";\n\ncontract ZombieOwnership is ZombieAttack, ERC721 {\n\n  using SafeMath for uint256;\n\n  mapping (uint => address) zombieApprovals;\n\n  function balanceOf(address _owner) public view returns (uint256 _balance) {\n    return ownerZombieCount[_owner];\n  }\n\n  function ownerOf(uint256 _tokenId) public view returns (address _owner) {\n    return zombieToOwner[_tokenId];\n  }\n\n  function _transfer(address _from, address _to, uint256 _tokenId) private {\n    ownerZombieCount[_to] = ownerZombieCount[_to].add(1);\n    ownerZombieCount[msg.sender] = ownerZombieCount[msg.sender].sub(1);\n    zombieToOwner[_tokenId] = _to;\n    emit Transfer(_from, _to, _tokenId);\n  }\n\n  function transfer(address _to, uint256 _tokenId) public onlyOwnerOf(_tokenId) {\n    _transfer(msg.sender, _to, _tokenId);\n  }\n\n  function approve(address _to, uint256 _tokenId) public onlyOwnerOf(_tokenId) {\n    zombieApprovals[_tokenId] = _to;\n    emit Approval(msg.sender, _to, _tokenId);\n  }\n\n  function takeOwnership(uint256 _tokenId) public {\n    require(zombieApprovals[_tokenId] == msg.sender);\n    address owner = ownerOf(_tokenId);\n    _transfer(owner, msg.sender, _tokenId);\n  }\n}\n",
  "sourcePath": "/Users/blake/Documents/Development/ethereum/eth-ba-cryptokitties-instagram/contracts/zombieownership.sol",
  "compiler": {
    "name": "solc",
    "version": "0.4.21+commit.dfe3193c.Emscripten.clang"
  },
  "schemaVersion": "2.0.0",
  "updatedAt": "2018-05-27T04:06:16.888Z"
}